S01100006D7950726F6A6563742E7372656356
S11300000C942A000C943E000C943C000C943C008C
S11300100C943C000C943C000C943C000C943C006C
S11300200C943C000C943C000C943C000C943C005C
S11300300C943C000C943C000C943C000C943C004C
S11300400C943C000C943C000C943C000C943C003C
S11300500C943C0011241FBECFE5D8E0DEBFCDBF19
S113006020E0A0E6B0E001C01D92A536B207E1F79A
S11300700E94C0010C945D050C9400001F920F9225
S11300800FB60F9211242F933F934F935F936F9367
S11300907F938F939F93AF93BF93EF93FF93CF93EC
S11300A0DF931F92CDB7DEB784EF91E00E94DA03AD
S11300B0AE014F5F5F4F63E082E00E9405038981D8
S11300C08823D1F10E94320184508230E8F40E94E6
S11300D028010E94ED000E94F7000E942D010E9459
S11300E0F2000E941B010E94ED0088E893E10E9447
S11300F0DA030E9423010E94F7000E94A3010E94D8
S1130100D6030E94BC0118C00E9432018330A1F4BE
S11301100E94F2000E941B010E94ED0088E893E116
S11301200E94DA030E9423010E94F7000E94A301A7
S11301300E94D6030E94BC010F90DF91CF91FF91E2
S1130140EF91BF91AF919F918F917F916F915F914B
S11301504F913F912F910F900FBE0F901F901895C4
S113016062E080E00E9441030E94CC00089580E098
S11301700E9493030E946501FDCF41E00E94C501E6
S1130180089541E00E944702089540E00E9447021A
S113019008950E94C902089560E080E00E94BD00B5
S11301A060E081E00E94BD0060E082E00E94BD004A
S11301B061E080E00E94BD0061E081E00E94BD003A
S11301C061E082E00E94BD00089585E080936400B0
S11301D060E080E00E94C100089560E080E00E9439
S11301E0C500089561E080E00E94C100089584E0A4
S11301F0809364001092610011C060E081E00E946D
S1130200C90061E081E00E94C90084EF91E00E948E
S1130210DA03809161008F5F8093610080916100B7
S11302208A3058F360E081E00E94C50061E081E01B
S11302300E94C500089583E08093640060E082E03A
S11302400E94C100089560E082E00E94C500089504
S113025061E082E00E94C100089561E082E00E94B2
S1130260C500089580916400089560E080E00E94D4
S1130270C50060E081E00E94C50060E082E00E9469
S1130280C500089584E0809364001092600014C057
S113029080916200813019F40E943501089560E074
S11302A081E00E94C90084EF91E00E94DA0380910A
S11302B060008F5F80936000809160008A3040F31B
S11302C060E081E00E94C500089538C00E94E50006
S11302D088E893E10E94DA0380916200813029F476
S11302E00E9435011092620008950E94ED000E9460
S11302F0420180916200813029F40E9435011092FC
S1130300620008950E941B0188E893E10E94DA03C9
S113031080916200813029F40E94350110926200BC
S113032008950E9423010E9442018091620081305D
S113033029F40E94350110926200089580916200B0
S1130340882321F2089560E080E00E94C50060E007
S113035081E00E94C50060E082E00E94C50061E087
S113036080E00E94C50061E081E00E94C50061E078
S113037082E00E94C500089581E0809362000895A0
S11303800E94B0000E94B7000895442309F43FC0BE
S1130390413009F07BC0613099F028F06230E9F017
S11303A0633041F108954AB321E030E0B90102C05D
S11303B0660F771F8A95E2F7CB01842B8ABB0895D9
S11303C047B321E030E0B90102C0660F771F8A9578
S11303D0E2F7CB01842B87BB089544B321E030E0DE
S11303E0B90102C0660F771F8A95E2F7CB01842B0F
S11303F084BB089541B321E030E0B90102C0660F27
S1130400771F8A95E2F7CB01842B81BB0895613075
S1130410A1F028F06230F9F0633059F108954AB33D
S113042021E030E0B90102C0660F771F8A95E2F738
S1130430CB01809584238ABB089547B321E030E043
S1130440B90102C0660F771F8A95E2F7CB01809548
S1130450842387BB089544B321E030E0B90102C08E
S1130460660F771F8A95E2F7CB018095842384BBBE
S1130470089541B321E030E0B90102C0660F771F4F
S11304808A95E2F7CB018095842381BB08954423A8
S113049009F43FC0413009F07BC0613099F028F085
S11304A06230E9F0633041F108954BB321E030E06C
S11304B0B90102C0660F771F8A95E2F7CB01842B3E
S11304C08BBB089548B321E030E0B90102C0660F48
S11304D0771F8A95E2F7CB01842B88BB089545B337
S11304E021E030E0B90102C0660F771F8A95E2F778
S11304F0CB01842B85BB089542B321E030E0B901E0
S113050002C0660F771F8A95E2F7CB01842B82BB6A
S113051008956130A1F028F06230F9F0633059F1A8
S113052008954BB321E030E0B90102C0660F771F94
S11305308A95E2F7CB01809584238BBB089548B359
S113054021E030E0B90102C0660F771F8A95E2F717
S1130550CB018095842388BB089545B321E030E026
S1130560B90102C0660F771F8A95E2F7CB01809527
S1130570842385BB089542B321E030E0B90102C071
S1130580660F771F8A95E2F7CB018095842382BB9F
S11305900895613099F028F06230E9F0633041F158
S11305A008954BB321E030E0B90102C0660F771F14
S11305B08A95E2F7CB0184278BBB089548B321E0E9
S11305C030E0B90102C0660F771F8A95E2F7CB01CC
S11305D0842788BB089545B321E030E0B90102C007
S11305E0660F771F8A95E2F7CB01842785BB0895B0
S11305F042B321E030E0B90102C0660F771F8A954B
S1130600E2F7CB01842782BB0895613099F028F08A
S11306106230E9F0633041F1089529B330E0B90163
S113062002C0759567958A95E2F7CB018170FA014E
S11306308083089526B330E0B90102C075956795AB
S11306408A95E2F7CB018170FA018083089523B380
S113065030E0B90102C0759567958A95E2F7CB0140
S11306608170FA018083089520B330E0B90102C09B
S1130670759567958A95E2F7CB018170FA018083BD
S113068008950F931F93CF93C62F9FB790689FBF72
S11306908130A9F018F0823029F141C0623029F488
S11306A041E063E082E00E94470240E063E082E0D0
S11306B00E94C501C5BF8BB780648BBF30C0623058
S11306C029F441E063E083E00E94470240E063E0F4
S11306D083E00E94C501CC0FCC0FC5BF8BB78068E7
S11306E08BBF1DC0623029F441E061E082E00E94CA
S11306F0470240E061E082E00E94C50184B70C2F0C
S1130700017010E000241695079507941695079537
S11307100794102F002D082B04BF8BB78BBFCF91EC
S11307201F910F910895813059F018F0823079F0BB
S113073008958FB780688FBF8BB780648BBF08958F
S11307408FB780688FBF8BB780688BBF08958FB7D2
S113075080688FBF8BB78BBF089562BF83BF089536
S113076082BF0895FF920F931F93CF93DF938C0161
S1130770F62EC0E0D0E011C080916300813019F4FE
S1130780109263000DC008B600FEFDCF21968F2D98
S11307900E94B00388B7816088BFC017D10764F393
S11307A0DF91CF911F910F91FF90089581E0809385
S11307B0630008958F929F92AF92BF92CF92DF927F
S11307C0EF92FF92CF93BC0180E090E00E94CF04AF
S11307D020E030E04AE754E40E9427044B015C0126
S11307E02DEB37E346E85CE30E9427040E9499045A
S11307F06B017C012DEB37E346E85EE3C501B401F0
S11308000E9427044B015C01B6010D2C000C880BDF
S1130810990B0E94D1049B01AC01C501B4010E9453
S113082027040E94A004C62FC1956C2F83E00E9468
S1130830AD036C2FC6010E94B203CF91FF90EF90DD
S1130840DF90CF90BF90AF909F908F9008950E94BB
S11308503B040C9423050E941C0558F00E941505C6
S113086040F029F45F3F29F00C940C0551110C94CD
S113087057050C9412050E94340568F39923B1F3CB
S1130880552391F3951B550BBB27AA2762177307B2
S1130890840738F09F5F5F4F220F331F441FAA1F46
S11308A0A9F335D00E2E3AF0E0E832D09150504002
S11308B0E695001CCAF72BD0FE2F29D0660F771FB0
S11308C0881FBB1F261737074807AB07B0E809F096
S11308D0BB0B802DBF01FF2793585F4F3AF09E3F1B
S11308E0510578F00C940C050C9457055F3FE4F324
S11308F0983ED4F3869577956795B795F7959F5F5E
S1130900C9F7880F911D9695879597F90895E1E0A9
S1130910660F771F881FBB1F621773078407BA0708
S113092020F0621B730B840BBA0BEE1F88F7E09563
S113093008950E94A0046894B1110C945705089579
S11309400E943C0588F09F5798F0B92F9927B7511A
S1130950B0F0E1F0660F771F881F991F1AF0BA955F
S1130960C9F714C0B13091F00E945605B1E0089562
S11309700C945605672F782F8827B85F39F0B93F54
S1130980CCF3869577956795B395D9F73EF4909512
S11309908095709561957F4F8F4F9F4F0895E89490
S11309A009C097FB3EF490958095709561957F4FB3
S11309B08F4F9F4F9923A9F0F92F96E9BB27939561
S11309C0F695879577956795B795F111F8CFFAF471
S11309D0BB0F11F460FF1BC06F5F7F4F8F4F9F4FA2
S11309E016C0882311F096E911C0772321F09EE800
S11309F0872F762F05C0662371F096E8862F70E066
S1130A0060E02AF09A95660F771F881FDAF7880F3F
S1130A109695879597F9089597F99F6780E870E010
S1130A2060E008959FEF80EC089500240A94161660
S1130A30170618060906089500240A9412161306C8
S1130A40140605060895092E0394000C11F4882356
S1130A5052F0BB0F40F4BF2B11F460FF04C06F5F72
S1130A607F4F8F4F9F4F089557FD9058440F551F48
S1130A7059F05F3F71F04795880F97FB991F61F01C
S1130A809F3F79F087950895121613061406551F93
S1130A90F2CF4695F1DF08C0161617061806991FFF
S1130AA0F1CF86957105610508940895E894BB27F4
S1110AB066277727CB0197F90895F894FFCFB6
S9030000FC
